:020000040800F2
:10000000A00600206501000897280008592600086E
:10001000952800085D070008DD2D0008000000009D
:100020000000000000000000000000000D29000892
:10003000D10A000800000000B92800080F290008B4
:100040007F0100087F0100087F0100087F01000890
:100050007F0100087F0100087F0100087F01000880
:100060007F0100087F0100087F0100087F01000870
:100070007F0100087F0100087F0100087F01000860
:100080007F0100087F0100087F0100087F01000850
:10009000610700087F0100087F0100087F01000858
:1000A0007F0100087F0100087F0100087F01000830
:1000B000E52900087F0100087F0100087F01000892
:1000C0007F0100087F0100087F0100087F01000810
:1000D0007F010008D12D00087F0100087F01000882
:1000E0007F0100087F0100087F0100080000000078
:1000F0000000000000000000000000000000000000
:1001000000000000000000007F0100087F010008DF
:100110007F0100087F0100087F0100087F010008BF
:100120007F0100087F0100087F0100087F010008AF
:100130007F01000800000000000000007F010008AF
:100140006D0700087F0100087F0100087F0100089B
:10015000DFF80CD000F0BEFA00480047592E000826
:10016000A00600200648804706480047FEE7FEE755
:10017000FEE7FEE7FEE7FEE7FEE7FEE7FEE7FEE757
:1001800091290008510100082DE9F05F0546002083
:1001900092469B4688460646814640241BE02846F8
:1001A00041464746224600F020F853465A46C01AB8
:1001B000914110D311461846224600F0E7F92D1A56
:1001C00067EB01084F4622460120002100F0DEF9CE
:1001D00017EB00094E41201EA4F10104DFDC484664
:1001E00031462A464346BDE8F09F202A04DB203AE8
:1001F00021FA02F00021704721FA02F3D040C2F147
:1002000020029140084319467047F0B480EA010289
:10021000D40F4200B2EB410F02D20246084611460B
:100220004A0042D0C30DDDB2C1F3C752AD1A202D32
:1002300035DAC1F3160141F4000204B15242C5F1AE
:10024000200602FA06F12A411044B3EBD05F23D016
:10025000C4B1012DA0EBC35009DCF0BC4FF000424B
:1002600002EAC352DBB200F5000000F0A7B940007B
:1002700000F1807000EBC350A0F1807040EAD170B3
:10028000490009E0490841EAC071A0EBC35000F5FC
:100290000000400800EBC350F0BC00F086B961429A
:1002A000012202EB4101001BF6E7F0BC704781F030
:1002B0000041AAE780F00040A7E780EA010210B5FC
:1002C00002F00043400022D04A001FD0010E01EB93
:1002D0001261C0F35600C2F3560240F4000042F42B
:1002E0000002A0FB022000047F39140400D0401C4F
:1002F00050EA124001D44000491EC2B20C0604EB81
:10030000D010401C4008802A02D003E0002010BD1D
:1003100020F00100002900DA0020184310BD30B49D
:1003200080EA010202F0004530F0004221F0004076
:1003300013D090B1C30DD40DC2F31601C0F3160053
:10034000E41A41F4000140F400027D34914201D3EB
:10035000641C00E04900002C02DA30BC0020704729
:100360004FF400000023914201D3891A034340084F
:100370004FEA4101F7D151B1914202D14FF0004112
:1003800005E002D24FF0010101E06FF0010103EB43
:10039000C450284430BC00F008B92DE9FE4F81EA72
:1003A000030404F0004421F0004100944FF0000BDE
:1003B00023F0004350EA01045ED052EA03045BD00C
:1003C000C3F30A54C1F30A552C44A4F2F334019444
:1003D000A0FB0254C1F3130141F48011C3F31303D2
:1003E00043F4801301FB024400FB034E840A970A86
:1003F00044EA815447EA8357A4FB076802958D0AB3
:1004000005FB07854FEA932C04FB0C542705029D3E
:100410004FEA065847EA1637B5EB08056EEB070CAE
:10042000870E920E47EA811742EA8312A7FB020168
:10043000B6EB0B0164EB00042B0D43EA0C335E18A2
:1004400044EB1C50DA465146E7FB0201C5F31304A6
:100450004FEA0B3343EA14534FEA0432019C43EA58
:100460000603A4F10C040294009CCDE900B400F052
:10047000E2F803B0BDE8F08F00200146F9E770B55F
:1004800021F0004303430CD0C1F30A550024D5EBFF
:10049000040564EB0403D617AD1AB34102DB002058
:1004A000014670BD201841EB025170BDC10F80EABA
:1004B000E0700844CA079623002100F07FB80EB50B
:1004C000C10F80EAE0700844CA07002140F23343BC
:1004D0008DE80E000A460B4600F0ADF803B000BDF3
:1004E0000EB540F2334102910021CDE900110A46D8
:1004F0000B4600F0A0F803B000BD00F0004220F071
:100500000040C10DC0F3160040F400007F2901DA5D
:1005100000207047962903DCC1F19601C84001E034
:1005200096398840002AF4D04042704720F00040BD
:10053000C10DC0F3160040F400007F2901DA00204D
:100540007047962903DCC1F19601C840704796397F
:100550008840704701F0004330B421F0004150EA78
:10056000010206D00A0DA2F56072C1F31301002A40
:1005700002DC30BC00207047440F44EAC104C100D3
:10058000E01830BC00EBC25000F00FB8202A04DBAA
:10059000203A00FA02F1002070479140C2F1200396
:1005A00020FA03F31943904070470029A8BF704711
:1005B000401C490008BF20F00100704710B4B0FA99
:1005C00080FC00FA0CF050EA010404BF10BC704734
:1005D00049B1CCF1200421FA04F411FA0CF118BF4E
:1005E000012121430843A3EB0C01CB1D4FEA00611D
:1005F0004FEA102042BF002010BC704700EBC350F0
:1006000010440029A4BF10BC7047401C490008BF1B
:1006100020F0010010BC704710B5141E73F10004E7
:1006200008DA401C41F1000192185B411A4301D1E4
:1006300020F0010010BD2DE9F04D92469B4611B10E
:10064000B1FA81F202E0B0FA80F220329046FFF770
:100650009DFF04460F4640EA0A0041EA0B0153465B
:100660005A46084313D0114653EA010019D0C8F185
:1006700040025046FFF7B9FD05460E465046594622
:100680004246FFF783FF084305D0012004E02046DF
:100690003946BDE8F08D0020054346EAE0762C435C
:1006A00037430A986305E40AA0EB08000022FD0A1C
:1006B00044EA47540A3002D500200146E9E7010523
:1006C00010196941DDE9084500196941BDE8F04D9F
:1006D000A2E70000064C074D06E0E06840F0010389
:1006E00094E8070098471034AC42F6D3FFF734FD86
:1006F0006C3200088C32000870B5174C154D032879
:10070000616806D002281BD004281BD001281CD009
:1007100070BD0320B1FBF0F200FB121020B90122E2
:100720002021284600F065FF2079C00704D100226F
:100730002021284600F05DFF6068401C606070BDAD
:10074000C80700E088070028F6D12021284600F0DD
:100750004CFFF1E7000C014040000020FEE70000E4
:10076000014800F043BA000098010020014800F061
:100770003DBA0000DC01002010B5002958D0826B82
:100780004FF4D873046803EB0113E45814F0040425
:1007900094600468E4584DD0E40854600468E35859
:1007A00003F00203D3604FF4DA73046803EB011320
:1007B000E45804F00F04146111620468E358C3F3B1
:1007C0000723D3614FF4DC73046803EB0113E4588F
:1007D00014750468E458240A54750468E458240C19
:1007E00094750468E3581B0ED3754FF4DE730468E8
:1007F00003EB0113E45814760468E458240A547691
:100800000468E458240C94760468E3581B0ED376ED
:100810000368202289B11A610268536923F05003EA
:10082000536190F83C20222A0DD0322A0BD00FE0E1
:10083000426BA5E7640D1460B0E7DA6002685369A3
:1008400023F00A03ECE70268536923F40F43536172
:1008500012220123002990F83C1006D0522915D00D
:10086000622916D0722906D115E042290ED06229DC
:1008700008D0722908D080F83C3000BF00F030FC6E
:10088000002010BD322107E0522105E080F83C2015
:10089000F4E7222100E0422180F83C10EEE706E078
:1008A0000021491CC9B20A29FBD3401E80B200288E
:1008B000F6D1704710B500F0C7F8442000F0CEF82C
:1008C00000F0C2F8BE2000F0C9F800F079F8044644
:1008D00000F076F8000201B251EA04006FF0030460
:1008E00001D5C043401CFFF7EAFD2246FFF7C7FDD4
:1008F000BDE81040FFF72EBE0B4808B5816941F0F6
:1009000020018161806900F02000009000F01EF855
:1009100001228021054800F06CFE00F07BF8BDE864
:10092000084000F021B8000000100240000C014017
:100930001FB58020009000200190012002906946A0
:10094000014800F06FFD1FBD000C01401FB5802065
:10095000009001200190032003906946014800F0B7
:1009600061FD1FBD000C014070B50024FFF7E0FFE2
:10097000124D04E0641CE4B20120FFF790FF8021D7
:10098000284600F02DFE10B1642CF3D30FE0642C48
:100990000DD2002404E0641CE4B20120FFF77FFFC5
:1009A0008021284600F01CFE18B1F02C04D3012051
:1009B00070BDF02CEFD3FAE7002070BD000C0140B1
:1009C0002DE9F0410026124F354600BFFFF7BEFF6C
:1009D00000228021384600F00CFE0A20FFF75FFF5E
:1009E000FFF7A6FF8021384600F0FAFD01280DD060
:1009F00000242D20FFF753FFAC4034436D1CEDB2B3
:100A0000E6B2082DE2D33046BDE8F0810124F0E7DC
:100A1000000C014010B5FFF799FF0A4C002280211D
:100A2000204600F0E6FD40F2EE20FFF738FF0122FD
:100A30008021204600F0DDFDBDE810400F20FFF7CB
:100A40002EBF0000000C014010B5FFF7E3FFFFF7D9
:100A50008BFFBDE81040CC20AFF3008070B5054699
:100A6000FFF774FF144E002415F0010F4FEA5505EF
:100A70004FF000024FF0800130460BD000F0B9FD7E
:100A80000820FFF70CFF01228021304600F0B1FD65
:100A90003A200AE000F0ADFD4620FFF700FF0122FA
:100AA0008021304600F0A5FD0220FFF7F8FE641C0F
:100AB000E4B2082CD8D370BD000C014000230922F9
:100AC0000149024801F06ABD0400002060020020D4
:100AD0007047002310B5401C1A46891E05E010F827
:100AE000014B521C2344DBB2D2B28A42F7DBD8431B
:100AF000401CC0B210BD0000F0B50C7D012303FA0C
:100B000004F20468D4F800524E6A25F47C5503EBD5
:100B100006231D43C4F800520368D3F81C429443D3
:100B2000C3F81C424FF41073CD691C1DBDB9056894
:100B3000D5F80C629643C5F80C628E894D684F69F2
:100B400066F31F45066803EBC707F5510E890D686C
:100B50004F6966F31F45066804EBC707F551CD6979
:100B6000012D17D10568D5F80C621643C5F80C6243
:100B70000E884D684F6966F31F45066803EBC7038F
:100B8000F5500D89CB684E6965F31F43056804EB8A
:100B9000C6042B518B69002B0368D3F8044211D093
:100BA00054EA0204C3F804420B69002B0368D3F82B
:100BB000144209D054EA0204C3F81442096A012914
:100BC00004D009E09443EDE79443F5E70168D1F8D8
:100BD0001C321343C1F81C320068D0F8001221F017
:100BE0000101C0F800120020F0BD70472DE9F0416E
:100BF000044600680026C168C1F300134169C1F3CF
:100C0000C002102113B10AB14E01C160206802690F
:100C10004369C2F30012C3F380131AB113B146F44F
:100C200080660161216848694FF00105C043C00733
:100C30004ED18A687648904323D000208B68754A4D
:100C40009A4320D000228F68734BBB431DD00023F2
:100C5000104318433CD088688A68C0F340008B6812
:100C6000C2F3402203F001031043184329D04A691C
:100C7000204622F001024A6194F83C10122906D065
:100C80000AE00120DAE70122DDE70123E0E701685D
:100C90004A6922F40F424A6190F83C10422908D078
:100CA000522908D0722908D080F83C5000F00EFB81
:100CB00009E0222102E0322100E0622180F83C10AC
:100CC000F4E746F4006620688168544A1143816065
:100CD0002168C868496910F0030FC1F3400104D0CE
:100CE00019B100212046FFF747FD216808694969CD
:100CF00010F0030FC1F3001104D019B101212046F7
:100D0000FFF73AFD206C3043206420688169426916
:100D100011F0010F4369C2F30022C3F3C03305D0C1
:100D200022B11BB1216C41F0010121648169C1F341
:100D300040034169C1F340224169C1F3C0312BB185
:100D400022B119B1216C41F0020121648169C1F322
:100D5000800341694269C1F38021C2F3C0322BB1E3
:100D600021B11AB1216C41F004012164816911F0B3
:100D7000700F08D000224169C1F3C0234169C1F35B
:100D8000C03112B121E00122F5E7F3B1E9B1816987
:100D900001F0700140292FD006DC102909D020294C
:100DA0000BD030290DD123E0502929D0602908D15A
:100DB0002AE0216C41F0080102E0216C41F01001B1
:100DC0002164816921F070018161206C00280DD0BF
:100DD00021680420486084F83C502068416948F646
:100DE0005B72914341612046FFF7FFFEBDE8F08151
:100DF000216C41F02001E3E7216C41F04001DFE785
:100E0000216C41F08001DBE7216C41F48071D7E770
:100E100001000004000100080000011009050100A4
:100E20002DE9F04104004FF0000504D094F83C0097
:100E3000002618B107E00120BDE8F08184F83D608C
:100E4000204600F083F8022084F83C002068016806
:100E500021F0020101602068016841F00101016098
:100E600000F0CCFB07464FF0030804E000F0C6FB9F
:100E7000C01B0A2853D820684068C007F6D02168F4
:100E80004868C00758D0A069012801D145F0800505
:100E9000E06901282FD025F04000226A012A2DD0D8
:100EA00020F02000626A012A2BD020F01000A26AF4
:100EB000012A29D020F00800E26A012A27D020F078
:100EC00004000A6822F0FC0202430A60D4E902012D
:100ED0000843D4E90412114308436168491E0843DA
:100EE0002168C8612068016821F00101016000F0FB
:100EF00085FB054618E045F04000CEE740F02000B5
:100F0000D0E740F01000D2E740F00800D4E740F00E
:100F10000400D6E700F072FB401B0A2804D904F84D
:100F20003C8F0320667087E720684068C007F1D1D6
:100F300020684068C00703D0042084F83C007AE7AA
:100F40002664012084F83C00002075E7F0B5324BA0
:100F50000768DFF8C0C018680022022503262F4961
:100F6000401C85B04FF48054674522D11860012899
:100F700007D1C86940F00070C861C86900F000700E
:100F800004904FF40060CDE90002254F69463846D1
:100F9000029200F047FA694638460396CDE90045CB
:100FA00000F040FA00221146142000F0BBFB142090
:100FB0002CE0DFF870C067452AD1CF6947F0806721
:100FC000CF61CF69012807F080670497186007D1C7
:100FD000C86940F00070C861C86900F000700490F2
:100FE000CDE90042104C69462046029200F01AFA00
:100FF0006014CDE9000569460396204600F012FA18
:1010000000221146402000F08DFB402000F07EFBC6
:1010100005B0F0BD006400402C000020001002402C
:101020000008014000680040000C014030B511B1DB
:10103000012925D010E090F83C20222A28D090F8F1
:101040003C20422A24D000BF90F83C20622A1FD0C6
:1010500090F83C20722A1BD090F83D20012A17D02E
:10106000012280F83D20622290F83C40722389B131
:10107000122C19D0222C18D0422C19D0322214E074
:1010800090F83C20322A03D090F83C20522ADBD141
:10109000022030BD122C05D0322C06D0522C07D0A5
:1010A000222202E0422200E0522280F83C2001E0AD
:1010B00080F83C300022026403685C6948F60175E0
:1010C0002C435C6180F83D2000680029416904D010
:1010D00041F050014161002030BD41F00A01F9E7C3
:1010E00010B500210448FFF7A1FFBDE81040102112
:1010F000024800F07ABA0000980100200008014080
:101100002DE9F05F0E46016804468868400105D469
:101110008868000102D48868C0006FD594F83D004B
:1011200001280CD0012784F83D7094F83C00222857
:1011300008D0322808D062280ED0122005E0022004
:10114000BDE8F09F422000E0522084F83C0088680F
:10115000400103D5002507E07220F6E7886800010A
:1011600001D5012500E002254FF4C07000EB051009
:101170000A5802F001020A50216B8A68EAB3D4F8D7
:1011800000C05CF800301343CA68496842EAC101F4
:101190000B434CF80030216B0A7C02F00F020A610D
:1011A0004FF4C271226801EB0511535823F00F036D
:1011B000535022685358D4F830C0DCF810C043EACA
:1011C0000C035350216B4FF4C47303EB05130A7DDA
:1011D000D1F8151042EA01222168CA50216B4FF460
:1011E000C67303EB05130A7ED1F8191042EA0122F7
:1011F0002168CA5021680A5801E00DE05AE042F027
:1012000001020A5000F0FAF981464FF00008DFF8B9
:10121000B0A0DFF8B0B026E022681358D1F80CC0B7
:10122000098843EA0C0343EA41511150B3E7701CAB
:1012300019D02EB100F0E2F9A0EB0900B04212D9AA
:10124000032084F83C004DB1012D09D04FF400007B
:101250002168886084F83D80032071E78020F7E7EB
:101260004FF40040F4E7ADB12068012D816816D03D
:10127000154888430028DAD194F83C00422811D060
:10128000522811D0722813D084F83C7084F83D8025
:10129000002055E7206881682AEA0100EAE72BEA86
:1012A0000100E7E7222000E0322084F83C00EDE76F
:1012B0006220FAE7042084F83C00012040E70000A7
:1012C0000100000400010008000001107047000048
:1012D0002DE9F05F90F821100024022903D00421A9
:1012E0008163012485E001680A6822F00E020A6029
:1012F00001680A6822F001020A603F4E3E4FB215B3
:10130000DFF8F4C0DFF8F090DFF8ECA0DFF8E8B029
:10131000DFF8E4E00168783F13011502ACF1640CDA
:10132000A9F15009AAF13C0AABF1280BAEF1140E59
:101330004FF48018B14227D9B9420ED0614512D07E
:1013400049451DD0514518D0594518D0714501D196
:10135000424615E0294EB14201D1012210E0274E4C
:101360001436B14201D110220AE0244E2836B1428F
:1013700006D0224A3C32914201D11A4600E02A4668
:101380001E49091F0A602BE0B94213D0614517D0EE
:10139000494522D051451DD059451DD0714501D137
:1013A00042461AE0B14202D14FF0807215E0134E6E
:1013B000B14201D1012210E0104E1436B14201D1E8
:1013C00010220AE00D4E2836B14206D00B4A3C32BC
:1013D000914201D11A4600E02A46074980394A6005
:1013E000012180F82110002180F82010416B01B10B
:1013F00088472046BDE8F09F800002400804024074
:1014000070B5044600F0FAF80546601C02D00448A6
:101410000078044400F0F2F8401BA042FAD370BDFB
:10142000300000202DE9F84FDFF890A100220AF1EA
:10143000040B144601274FF00F090BF1040E00BFF7
:101440000B6807FA04F52B40AB4274D1DFF870C18A
:101450004E68A6EB0C0866452BD00DDC032E34D06D
:1014600005DC36B3012E19D0022E2FD11BE0112E30
:1014700016D0122E2AD119E0B8F5881F19D006DC33
:10148000B8F5803F15D0B8F5801F1FD111E0B8F531
:10149000001F0ED0B8F5041F18D10AE0CA6815E085
:1014A000CA68121D12E0CA6808320FE0CA680C321E
:1014B0000CE08A682AB1012A4FF0080203D0456186
:1014C00004E0042202E0056100E00022FF2B01D8C5
:1014D000064601E000F104064FEA840501D9A5F1B2
:1014E0002005D6F800C009FA05F82CEA080C02FA23
:1014F00005F54CEA050CC6F800C04D68ED0057D55F
:10150000304DAE6946F00106AE61AD6924F00306C8
:1015100005F0010500952C4D06EB050CDCF8085094
:10152000A6074FEA167809FA08F6B543274EB042E7
:1015300002D1002610E03BE0254EB04201D1012649
:101540000AE0244EB04201D1022605E0224EB0420C
:1015500001D1032600E0042606FA08F62E43CCF853
:1015600008604D68DAF80060ED03554601D51E436A
:1015700000E09E432E604D68DBF80060AD035D46E1
:1015800001D51E4300E09E432E604D68DEF80060EA
:10159000ED02754601D51E4300E09E432E604D6866
:1015A000AD020E4D2E6801D51E4300E09E432E6015
:1015B000641C102CFFF444AFBDE8F88F0004014018
:1015C000000011100010024000000140000801401E
:1015D000000C014000100140001401400C040140C7
:1015E0008068084000D001207047C2684A40C2604D
:1015F00070470AB1016170470904FBE70148806840
:1016000070470000300000200248816802781144D1
:101610008160704730000020074810B5016841F034
:1016200010010160032000F09DF8002000F006F892
:1016300000F024F8002010BD0020024070B50D4DD0
:1016400004464FF47A712878B1FBF0F00A49096832
:10165000B1FBF0F000F0B7FB48B9102C07D2002224
:101660002146501E00F05EF800206C6070BD012025
:1016700070BD0000300000203C000020214808B56B
:10168000816941F001018161816901F001010091ED
:10169000C16941F08051C161C06900F08050009083
:1016A000032000F05FF8002211466FF00B0000F0FD
:1016B00039F8002211466FF00A0000F033F80022DA
:1016C00011466FF0090000F02DF800221146501F5E
:1016D00000F028F800221146101F00F023F8002225
:1016E0001146901E00F01EF800221146501E00F018
:1016F00019F80548416821F0E06141F0007141604E
:1017000008BD0000001002400000014000F01F0270
:10171000012191404009800000F1E020C0F8001153
:1017200070470000F0B40E4B1B680C46C3F3022355
:10173000C3F10705042D00D90425191D072901D27D
:10174000002300E0DB1E012606FA05F1491E2140B8
:1017500099409E40761E16403143F0BC01F09CB883
:101760000CED00E0064900F0070208684FF6FF03A1
:10177000184040EA0220034A104308607047000006
:101780000CED00E00000FA052DE9F047DFF83C81A0
:1017900005460E46D8F8000000F00700B0420CD213
:1017A000D8F8001021F007013143C8F80010D8F82C
:1017B000000000F00700B04263D12878444C800755
:1017C00005D56068A96820F0F000084360602878BB
:1017D000C00745D06868012816D02168022816D0B5
:1017E000890700294DDA616821F003010143616036
:1017F000FFF704FF6968074641F2883001290FD0DE
:101800000229814619D027E021688903E9E7890187
:10181000E7E700BFFFF7F2FEC11B494501D918E019
:1018200081466068C0F381000128F3D118E000BF51
:10183000FFF7E4FEC11B49450BD86068C0F3810087
:101840000228F5D10CE000BFFFF7D8FEC11B4945C7
:1018500002D90320BDE8F087606810F00C0FF3D1C7
:10186000D8F80010404601F00701B1420BD90168D9
:1018700021F0070131430160006800F00700B04229
:1018800001D00120E6E72878400705D56068E968BF
:1018900020F4E060084360602878000706D560689F
:1018A000296920F4605040EAC100606000F03CF813
:1018B0006168084AC1F30311515CC84006490860D9
:1018C0000020FFF7BBFE0020C4E70000002002401C
:1018D00000100240543200083C000020014800681B
:1018E000704700003C000020044805490068496832
:1018F000044AC1F30221515CC84070473C000020FB
:101900000010024064320008044805490068496834
:10191000044AC1F3C221515CC84070473C0000201A
:101920000010024064320008F0B523A289B00FCA4B
:1019300004AC84E80F0024A10FC98DE80F002649EC
:101940004A68264802F00C03042B2FD0082B2DD117
:1019500004A8C2F38343C45CD00329D5C86A00F04D
:101960000F001DF80020C86AC00316D5C86AC96AEE
:10197000C0F30310C1F30321401C891CA0FB022308
:10198000A1FB0416154F0025A1FB070C06FB07C69B
:1019900001FB0561FEF7F8FB03E010486043B0FB74
:1019A000F2F09DF81D10A14200D1400809B0F0BD31
:1019B0000B486043FAE70000000004050607080929
:1019C00000000000000D00000102030405060708E6
:1019D000090A0B0C0D0E0F100010024000127A00C5
:1019E00000093D002DE9F84F04460078EA4DC00794
:1019F00048D06868C0F38100012807D06868C0F348
:101A00008100022809D16868C00306D528688003D0
:101A100038D5A06800286FD034E0A068B0F5803FCA
:101A20000BD010B1B0F5A02F11D0286820F4803071
:101A30002860286820F4802002E0286840F4803084
:101A40002860A06888B1FFF7D9FD064609E028683C
:101A500040F480202860F0E7FFF7D0FD801B642869
:101A600078D828688003F7D50CE0FFF7C7FD064655
:101A700005E000BFFFF7C2FD801B6428F0D828688E
:101A80008003F7D42078C54E80074FF001094FF04E
:101A900000073CD5686810F00C0F07D06868C0F3E9
:101AA0008100022809D16868C00306D4286880072D
:101AB00015D5606901281FD111E06069B8B1C6F879
:101AC0000090FFF79BFD804606E000BFFFF796FD04
:101AD000A0EB08000228C3D828688007F6D528683C
:101AE000A16920F0F80040EAC10028600FE03760EB
:101AF000FFF784FD804607E02DE100BFFFF77EFD84
:101B0000A0EB08000228ABD828688007F6D420781C
:101B100000072ED5A248E169E9B1C0F80090FFF7AF
:101B20006DFD804606E000BFFFF768FDA0EB0800F2
:101B3000022895D8686A8007F6D59A484FF4FA517A
:101B40000068B0FBF1F0009000BF0098411E0091CA
:101B5000FAD20EE0B0E00760FFF750FD804605E0E6
:101B6000FFF74CFDA0EB0800022887D8686A8007C1
:101B7000F6D42078400763D5E8694FF00008C0002C
:101B800009D4E86940F08050E861E8694FF0010845
:101B900000F08050009084480168C90512D40168A3
:101BA000834641F480710160FFF728FD824605E01D
:101BB000FFF724FDA0EB0A0064287DD8DBF80000C5
:101BC000C005F5D5206901280AD008B1052813D031
:101BD000286A20F001002862286A20F0040002E050
:101BE000286A40F001002862206941F2883B98B1E0
:101BF000FFF704FD82460BE0286A40F004002862EB
:101C0000EEE700BFFFF7FAFCA0EB0A01594553D8F5
:101C1000286A8007F6D50CE0FFF7F0FC824605E065
:101C2000FFF7ECFCA0EB0A01594545D8286A80076C
:101C3000F6D4B8F1000F03D0E86920F08050E861D5
:101C4000E06AD0B36968C90307D56968C1F3810147
:101C5000022902D1E96AC9037DD4022808D0E86AC2
:101C600020F48030E862B766FFF7C8FC80463BE0AE
:101C70002868C00005D5E86A616B00F0F000884272
:101C800069D1B766FFF7BAFC804605E0FFF7B6FCFE
:101C9000A0EB0800642874D828680001F6D4E86A2C
:101CA000616B20F0F0000843E862E86A216B20F4E1
:101CB00070600843E86201E063E018E0C6F86890ED
:101CC000FFF79CFC804605E0FFF798FCA0EB0800BE
:101CD000642856D828680001F6D508E0FFF78EFC86
:101CE000A0EB080064284CD828680001F6D4206ACC
:101CF00090B36968C1F3810102294AD0022837668E
:101D000003D0FFF77BFC04463EE0FFF777FC074675
:101D100005E000BFFFF772FCC01B022831D828681D
:101D20008001F7D4606AB0F5803F09D1E86A616844
:101D30000843E862E86AE16820F00F000843E862BF
:101D4000D4E909010843696821F474110843686003
:101D5000C6F8609001E01CE019E0FFF74FFC044674
:101D600005E000BFFFF74AFC001B022809D82868DD
:101D70008001F7D50BE000BFFFF740FC001B0228F5
:101D800002D90320BDE8F88F28688001F4D4002030
:101D9000F8E70120F6E70000001002400000424290
:101DA000800442423C000020007000404FF0E021DF
:101DB0000428086903D020F004000861704740F04F
:101DC0000400FAE7704710B5401EB0F1807F01D3E0
:101DD000012010BD4FF0E02460610F21601700F07A
:101DE0005BFD0020A06107202061002010BD10B520
:101DF000FFF7E8FF10BD7047704730B590F83C2002
:101E0000012A20D0012280F83C20022380F83D30B6
:101E100003685C6824F070045C6003685C680D68AB
:101E20002C435C6003689C6824F080049C60036819
:101E30009C6849680C439C6080F83D20002180F834
:101E40003C10084630BD022030BD10B5040003D060
:101E500094F83D0010B107E0012010BD002084F887
:101E60003C00204600F00CF8022084F83D00211DC3
:101E7000206800F0BDFD012084F83D00002010BD69
:101E800008B50068B0F1804F12D10A48C16941F02D
:101E90000101C161C069002200F0010000901146FB
:101EA0001C20FFF73FFCBDE808401C20FFF72EBCBC
:101EB00008BD0000001002400168CA6842F001023B
:101EC000CA600068016841F00101016000207047AC
:101ED00070B5044690F83C00012817D0012584F81D
:101EE0003C50022084F83D002068826822F077028E
:101EF00022F47F4282600868502837D00DDC202809
:101F000059D005DC88B3102841D151E0022070BDC2
:101F1000302853D040283AD13FE060282ED0702896
:101F20000BD0B0F5805F03D0B0F5005F2FD110E08B
:101F30002068816821F0070115E0CB68D1E9012113
:101F4000206800F093FD2168886840F07700886081
:101F50001DE0CB68D1E90121206800F087FD2068F1
:101F6000816841F48041816011E01EE0CA684968DF
:101F7000206800F08DFD5021206806E0CA6849689D
:101F8000206800F096FD6021206800F079FD84F85B
:101F90003D50002084F83C0070BDCA684968206844
:101FA00000F076FD40212068EFE700212068ECE793
:101FB00010212068E9E720212068E6E73021206829
:101FC000E3E7704770B50446006801694FF000050B
:101FD000C943890715D4C168C943890711D4E91ECB
:101FE000016101202077206880698007204602D0A7
:101FF000FFF7E7FF04E000F098F8204600F096F8BD
:10200000257720680169C943490717D4C168C943C6
:10201000490713D46FF00401016102202077206882
:10202000806910F4407F204602D0FFF7CAFF04E029
:1020300000F07BF8204600F079F8257720680169E8
:10204000C943090716D4C168C943090712D46FF000
:1020500008010161042020772068C06980072046BC
:1020600002D0FFF7AEFF04E000F05FF8204600F07A
:102070005DF8257720680169C943C90617D4C1688E
:10208000C943C90613D46FF01001016108202077FD
:102090002068C06910F4407F204602D0FFF791FF0E
:1020A00004E000F042F8204600F040F82577206870
:1020B0000169C943C90708D1C168C943C90704D127
:1020C000891E0161204600F033F820680169C94388
:1020D000090609D4C168C943090605D46FF0800117
:1020E00001612046FFF787FE20680169C943490660
:1020F00009D4C168C943490605D46FF040010161A4
:10210000204600F00BF920680169C94389060BD409
:10211000C168C943890607D46FF0200101612046D8
:10212000BDE87040FFF768BE70BD704770470000A3
:102130002DE9F047734DDFF8D0910027A878A5F17D
:10214000B804401CC0B2A870042827D0082815D9AC
:10215000607F94F82510C84209D0A07F94F826101B
:10216000C84204D0E07F94F82710C84201D1012270
:1021700000E0002220214846FFF73BFAA8780C280F
:1021800000D9AF70207F082802D22878401C287020
:1021900080215E48FFF724FA50B12BE0677784F87E
:1021A0002570A77784F82670E77784F82770E9E729
:1021B0006878401C6870607F94F82510C84209D088
:1021C000A07F94F82610C84204D0E07F94F827102E
:1021D000C84201D1012200E0002220214846FFF739
:1021E00008FA677784F82570A77784F82670E77770
:1021F00084F82770434E94F8A000143E4FF0010875
:10220000012831D0002041462218537F282B08D9BD
:1022100004EB8003317006EB000C93F830308CF83F
:10222000033092F89020322A06D904EB80027170B4
:10223000331892F83020DA70401CC0B20828E3D37B
:10224000334B22699A4200DD3170324A2068904255
:1022500000DD7170A868012850D0707801283078AE
:1022600012D0012813D015E0E8680022401CE86075
:10227000F77420214846FFF7BCF9E8683C28E9D309
:1022800084F8A070EF60E5E701280DD002E003209C
:10229000FEF732FAB078012802D10420FEF72CFABA
:1022A0007078012802D10220FEF726FA3078012842
:1022B00005D0B078012802D07078012802D1686872
:1022C000401C6860A8681E2800D3AF602569A1691A
:1022D0002846FDF7ECFFA5610146C4F89800D4F844
:1022E0009C00FDF792FF0C49C4F89C00884203DD76
:1022F000C4F89C7086F80280BDE8F0870220A860D0
:10230000E4E7000008010020000C01400008014043
:1023100000002042000048426666664070477047F1
:1023200070B5026804461068D168536910F00F0F49
:1023300051D003F0010501F4907635435DD0C2071A
:1023400005D0CA0503D5E26B42F00102E263420701
:1023500005D5DA0703D0E26B42F00202E26382079E
:1023600005D5DA0703D0E26B42F00402E26302070C
:1023700005D5DA0703D0E26B42F00802E263E26BB4
:10238000002A34D0800604D5880602D5204600F005
:10239000B8FB20684069E16BC0F3801001F00801D0
:1023A0000143204624D000F09EFB20684169490685
:1023B0001AD5416921F040014161606BA0B11B4910
:1023C0004163606BFEF784FF002810D0606B416BA7
:1023D000BDE87040084783060FD58B060DD5204613
:1023E000BDE8704000F08DBB2046FFF798FF70BD40
:1023F000FFF795FF0020E06370BD030606D50B06CE
:1024000004D52046BDE8704000F07EBC4006F3D500
:102410004806F1D5D168204621F04001D160202145
:1024200084F8391000F017F970BD0000D72A0008B1
:1024300070B5040004D094F83900002510B106E00E
:10244000012070BD84F83850204600F023F8242085
:1024500084F839002068C16821F40051C160204629
:1024600000F09AFB2068016921F490410161206825
:10247000416921F02A0141612068C16841F400519D
:10248000C160E563202084F8390084F83A00002018
:1024900070BD000010B50068154986B0884225D18E
:1024A0001448816941F4804181618069124C00F4D3
:1024B000804004904FF400700090022001900320AF
:1024C000039069462046FEF7ADFF00212015CDE9B7
:1024D0000001029169462046FEF7A4FF0022114642
:1024E0002520FFF71FF92520FFF710F906B010BDD2
:1024F00000380140001002400008014090F83A30D6
:10250000202B22D1F9B1F2B190F83830012B1CD038
:1025100081628285C2850021C163222280F83A202F
:1025200080F838100168CA6842F48072CA60016895
:102530004A6942F001024A610068C16841F0200125
:10254000C1600020704701207047022070470000E2
:1025500010B50E4C0922211D0D48FFF7CFFF607A00
:10256000217A00EB0120FDF7BBFF0A4A0A4BFDF779
:1025700014FFFDF7EFFF20600921201DFEF7A9FAE7
:10258000217B884201D00020206010BD5000002037
:10259000600200209A9999999999B93F2DE9F843D9
:1025A000044690F839001F4616460D46202850D1A3
:1025B000A5B19EB194F8380001284AD0012084F8D2
:1025C00038004FF00008C4F83C80212084F839001E
:1025D000FFF714F8A6848146E68426E00120BDE8D2
:1025E000F883E08C401EE084A0684B46B0F5805F25
:1025F0004FF000024FF080012046009703D000F01A
:10260000B4FBE8B90DE000F0B0FBC8B92888216838
:10261000C0F308004860206908B16D1C05E0AD1CDE
:1026200003E0216815F8010B4860E08C0028D8D140
:102630004B46002240212046009700F096FB08B14F
:102640000320CCE7202084F8390084F8388000206B
:10265000C5E70220C3E77047FEE70000104810B549
:102660000E4901600921416000214FF4E0228160A0
:10267000C0E903124FF4C002C0E90521C161016243
:1026800041628162C162FEF7CBFB002805D0BDE844
:102690001040462103A000F0A2BB10BD0064004022
:1026A000980100202E2E2F5372632F63616E2E63CC
:1026B00000000000104810B50E490160092141607A
:1026C00000214FF4E0228160C0E903124FF4C00200
:1026D000C0E90521C161016241628162C162FEF708
:1026E0009FFB002805D0BDE810405C2103A000F04E
:1026F00076BB10BD00680040DC0100202E2E2F5359
:1027000072632F63616E2E63000000002DE9F041BB
:102710002C4886B0816941F020018161816901F016
:1027200020010491816941F004018161816901F016
:1027300004010491816941F0080181618069224F9F
:1027400000F008000490012210213846FEF751FFE6
:10275000DFF878800022A0214046FEF74AFF0122E0
:1027600040214046FEF745FF1020012400258DE85A
:102770003100694638460394FEF754FEC0260096A1
:10278000CDE9015469463846FEF74CFE0F20CDE9ED
:102790000005694602944046FEF744FE20208DE87D
:1027A0003100694640460394FEF73CFE0220CDE925
:1027B0000250CDE9006469464046FEF733FE06B09C
:1027C000BDE8F0810010024000080140000C01400B
:1027D00010B5184886B04FF08041016048F69F411F
:1027E0000024C0E9011440F2E731C0E90314846118
:1027F000FFF72BFB18B13F210FA000F0F0FA4FF4C8
:102800008050009069460B48FFF762FB18B14521E4
:1028100009A000F0E4FA049404A906480594FFF71F
:10282000ECFA002803D04C2103A000F0D8FA06B03F
:1028300010BD0000200200202E2E2F5372632F7433
:10284000696D2E63000000000D4810B50B49016052
:102850004FF416514160002181600C22C160C0E933
:1028600004128161C161FFF7E3FD002805D0BDE8D6
:102870001040422103A000F0B2BA10BD0038014060
:10288000600200202E2E2F5372632F7573617274B5
:102890002E630000FEE770470907090E002806DADC
:1028A00000F00F0000F1E02080F8141D704700F1E7
:1028B000E02080F8001470477047000070B5124D9A
:1028C000002401212846FEF78BFE012800D10124B7
:1028D00002212846FEF784FE012801D144F00204BB
:1028E00004212846FEF77CFE012801D144F00404AF
:1028F00008212846FEF774FE012801D0204670BD4D
:1029000044F0080070BD0000000C0140704710B595
:10291000FEF77AFEBDE81040FFF769BA70B594B0D3
:10292000012500242804CDE902040226CDE908602F
:102930000095059501944FF4E010CDE90A0468462E
:10294000FFF750F800B1FEE70F20CDE90E064FF477
:102950008060CDE9104002210EA81294FEF714FF0A
:1029600000B1FEE7FEF7BAFF4FF47A71B0FBF1F069
:10297000FFF729FA0420FFF719FA04480567002237
:102980001146501EFEF7CEFE14B070BD000042424C
:102990001048016841F00101016041680E4A114090
:1029A000416001680D4A11400160016821F48021F5
:1029B0000160416821F4FE014160016821F0A051ED
:1029C00001604FF47F0181600021C1620449C003AE
:1029D00008607047001002400000FFF0FFFFF6FEA5
:1029E00008ED00E00148FFF7EDBA000020020020EA
:1029F000F0B50268194B1A4C1A4D1B4E4FF0804728
:102A0000984207D0B84205D0A04203D0A84201D0D6
:102A1000B04204D122F0700C4A6842EA0C0298429B
:102A200007D0B84205D0A04203D0A84201D0B0429E
:102A300003D122F44074CA68224322F080044A6918
:102A4000224302608A68C2620A688262984201D1A7
:102A50000969016301214161F0BD0000002C0140C2
:102A60000004004000080040000C004010B58468DD
:102A700042EA032224F47F440A432243826010BDC9
:102A8000826822F070020A4342F0070181607047B9
:102A900010B5036A046A24F001040462846924F016
:102AA000F00444EA021423F00A020A438461026239
:102AB00010BD10B5036A23F0100303628369046A32
:102AC00023F4704343EA023224F0A00343EA0111E5
:102AD0008261016210BD10B5406A0021C185C184C8
:102AE000FFF71DFC10BD0168CA6822F49072CA602D
:102AF00001684A6922F001024A61202180F83A10F7
:102B0000704710B590F83A10222901D0022010BD6C
:102B10008168B1F5805F11D00169002901681FD07B
:102B2000496801F07F03816A4A1C82620B70C18D83
:102B3000491E0904090CC18518D02BE00269816A7D
:102B4000002A0268526805D0D2B20A80816A491C04
:102B50008162ECE7C2F308020A80816A891CF7E708
:102B60004A68816A4B1C83620A70E0E70168CA68A0
:102B700022F02002CA600168CA6822F48072CA602A
:102B800001684A6922F001024A61202180F83A1066
:102B9000FFF7DEFC002010BD2DE9F041044600687F
:102BA0000169E26821F44051114301612169A06883
:102BB0000843616908432168CA6841F20C639A437B
:102BC0000243CA6020684169A26921F4407111433F
:102BD00041614C4920686425322688423CD1FEF789
:102BE00093FE00EBC00101EB001061688900B0FBAF
:102BF000F1F7FEF789FE00EBC00101EB0010616800
:102C0000B0468900B0FBF1F0B0FBF5F06FF01801B1
:102C1000484307EB800106EB0110B0FBF5F000F034
:102C2000F006FEF771FE00EBC00101EB00106168D9
:102C30008900B0FBF1F0B0FBF5F006EB0016FEF7F3
:102C400063FE00EBC00101EB001061688900B0FB7E
:102C5000F1F7FEF759FE3BE0FEF746FE00EBC00140
:102C600001EB001061688900B0FBF1F7FEF73CFE54
:102C700000EBC00101EB00106168B0468900B0FBB9
:102C8000F1F0B0FBF5F06FF01801484307EB80015D
:102C900006EB0110B0FBF5F000F0F006FEF724FEA5
:102CA00000EBC00101EB001061688900B0FBF1F09E
:102CB000B0FBF5F006EB0016FEF716FE00EBC001C8
:102CC00001EB001061688900B0FBF1F7FEF70CFE24
:102CD00000EBC00101EB001061688900B0FBF1F06E
:102CE000B0FBF5F06FF01801484307EB800108EBEB
:102CF0000110B0FBF5F0216800F00F00304488604F
:102D0000BDE8F0810038014090F83910212901D048
:102D1000022070478168B1F5805F016A0BD04A1CC0
:102D20000262026809785160C18C491E0904090CCD
:102D3000C1840ED017E009880268C1F30801516010
:102D400001690029016A02D0491C0162ECE7891C73
:102D5000FBE70168CA6822F08002CA600068C168A7
:102D600041F04001C160002070472DE9F0419846D4
:102D700017460E460446069D1DE0681C1BD02DB16B
:102D8000FEF73CFCA0EB0800A84214D92068C168FB
:102D900021F4D071C1602068416921F001014161D5
:102DA000202084F8390084F83A00002084F83800A4
:102DB0000320BDE8F0812068006836EA000004D0F6
:102DC0000020B842D9D00020F3E70120F9E7000045
:102DD0000148FFF7A5BA000060020020FEE7FEE709
:102DE00002E008C8121F08C1002AFAD170477047D4
:102DF000002001E001C1121F002AFBD17047000032
:102E00002DE9F041134C8046D4E90101FDF7FDF9AD
:102E10000746E168FDF7F9F901463846FDF77FFA04
:102E2000216806460D464046FDF741FA3146FDF75A
:102E300044FA2946FDF7E9F9054631464FF07E5040
:102E4000FDF735FA3946FDF738FAC4E9005028464F
:102E5000BDE8F081100000208AB0FEF7DDFBFFF72F
:102E60005DFDFFF753FCFFF7F9FBFFF723FCFFF7CE
:102E7000EBFCFFF7ADFC4FF47A70FEF7C1FADFF818
:102E8000A09304E0002210214846FEF7B2FBFDF7B4
:102E900033FD0028F6D1FDF711FEE248FFF70CF8EC
:102EA000E14C0922211DE148FFF728FB00250126FE
:102EB00001950295CDE90656059503950095049573
:102EC0006946DB480896FDF717FE00B1FEE7DFF81C
:102ED0006083D8F80000416941F0080141610F208A
:102EE0000095CDE90450012001950295CDE90650E9
:102EF000039508906946CF48FDF7FEFD00B1FEE757
:102F0000CC4F3868416941F0080141610021C8484F
:102F1000FEF78CF800213846FEF788F8DFF818B382
:102F2000002220215846FEF764FB00221021BC48F5
:102F3000FEF75FFB012240215846FEF75AFBFDF7E2
:102F4000B9FCB94EA061B83606F134003570F560B1
:102F500075707560B560C8F830002438C8F8340062
:102F600000F1640800F1400AC7E90C8AB946002163
:102F7000B048FEF75BF8FFF7A1FC2077FDF79AFC5D
:102F800007462061FDF7B9FAFDF790FA3946FDF7DB
:102F900091F9AA49FDF791F96061207F08287DD356
:102FA000D9F834004F46017D082959D2DFE801F0F5
:102FB000040E18222D38434E2163417D6177817DB7
:102FC00084F89010C07D84F8250049E06163417D5C
:102FD000A177817D84F89110C07D84F826003FE0C0
:102FE000A163417DE177817D84F89210C07D84F8F2
:102FF000270035E0E163417D84F82010817D84F86D
:103000009310C07D84F828002AE02164417D84F873
:103010002110817D84F89410C07D84F829001FE080
:103020006164417D84F82210817D84F89510C07D13
:1030300084F82A0014E0A164417D84F82310817D86
:1030400084F89610C07D84F82B0009E0E164417D8E
:1030500084F82410817D84F89710C07D84F82C00BA
:1030600040216F48FEF7BCFA60BB757084F8A05031
:10307000012240215846FEF7BCFAC7E90C8A082114
:10308000C8F81010396B04208860386BC560217F48
:103090006B480844396B4860FF2000E049E0396B19
:1030A000C87601216348FEF72BF8012220215846FB
:1030B000FEF79FFA0A20FEF7A3F9002220215846C6
:1030C000FEF797FA7068782832D957480121A43062
:1030D0007560C174057085704570B1600022202153
:1030E0005846FEF786FA00F0AFF8012870D1C7E91C
:1030F0000C8A0821C8F81010396B04208860386BDE
:10310000C560217F4E480844396B4860464900201D
:10311000A4310A1800F1140C3B6B401CD278C0B2E9
:1031200003F80C200828F4D301214248FDF7E8FFFA
:103130004EE04F460821C7E90C8AC8F81010D9F8AC
:10314000301004208860D9F83000C560217F3C48E9
:103150000844D9F830104860D9F83010207F08753D
:103160002069FDF7E3F9396B48752068FDF7DEF952
:10317000396B88756069FDF7D9F9396BC875307896
:10318000022808D101212B48FDF7BAFF102124485D
:10319000FEF72BFA3570786BB946C07EFF2804D154
:1031A000012240215846FEF724FA0027D9F83010B2
:1031B000D9F8342007F114004968105C814204D129
:1031C000012240215846FEF714FA7F1C082FEDDB40
:1031D00070780A280DD9012084F8A0001248002236
:1031E000A430202105708570457075705846FEF733
:1031F00000FAB0680A2804D1002220215846FEF7C0
:10320000F8F900F021F80F4F0922211D78610748D5
:10321000FFF774F92069FFF7F3FDB861A7E6000036
:103220000008014020020020500000206002002021
:1032300098010020DC010020000C01400000C84281
:103240001800FE1810000020014800680068704750
:103250000000002000000000000000000102030444
:103260000607080900000000010203048C32000870
:103270000000002040000000E02D0008CC320008D3
:103280004000002060060000F02D000800700008DB
:10329000FF0178400000000047000000000000002F
:1032A00000002041ACC5273717B751380000000097
:1032B000000000000000000000000000010000000D
:0C32C000100000000000000000A24A0402
:04000005080001519D
:00000001FF
